:100000000C9435000C945D000C945D000C945D0024
:100010000C945D000C945D000C945D000C945D00EC
:100020000C945D000C945D000C945D000C945D00DC
:100030000C945D000C945D000C945D000C945D00CC
:100040000C94F6010C945D000C9466020C94400232
:100050000C945D000C945D000C945D000C945D00AC
:100060000C945D000C945D005B0B11241FBECFEF60
:10007000D8E0DEBFCDBF11E0A0E0B1E0E8EAF7E1F3
:1000800002C005900D92A231B107D9F721E0A2E19B
:10009000B1E001C01D92AE3BB207E1F710E0C5E34D
:1000A000D0E004C02197FE010E94C70BC433D107E2
:1000B000C9F70E9498020C94D20B0C9400003FB731
:1000C000F8948091190190911A01A0911B01B091AF
:1000D0001C0126B5A89B05C02F3F19F00196A11D54
:1000E000B11D3FBFBA2FA92F982F8827820F911DCE
:1000F000A11DB11DBC01CD0142E0660F771F881F15
:10010000991F4A95D1F708958F929F92AF92BF920F
:10011000CF92DF92EF92FF926B017C010E945F0011
:100120004B015C01C114D104E104F104F1F00E941F
:100130005F00DC01CB0188199909AA09BB09883E37
:100140009340A105B10570F321E0C21AD108E1087E
:10015000F10888EE880E83E0981EA11CB11CC11422
:10016000D104E104F10419F7DDCFFF90EF90DF90A7
:10017000CF90BF90AF909F908F900895CF92DF92D5
:10018000EF92FF920F931F93CF93DF936C017A014D
:100190008B01C0E0D0E0CE15DF0581F0D8016D9174
:1001A0008D01D601ED91FC910190F081E02DC60109
:1001B0000995892B11F02196EECF7E01C701DF91C1
:1001C000CF911F910F91FF90EF90DF90CF90089506
:1001D000089580E090E00895FC01538D448D252F13
:1001E00030E0842F90E0821B930B541710F0CF96D1
:1001F000089501970895FC01918D828D981761F003
:10020000828DDF01A80FB11D5D968C91928D9F5F4D
:100210009F73928F90E008958FEF9FEF0895FC01F8
:10022000918D828D981731F0828DE80FF11D858DAB
:1002300090E008958FEF9FEF0895FC01918D228D3E
:10024000892F90E0805C9F4F821B91098F739927C3
:10025000089581E291E00E941D0121E0892B09F4BB
:1002600020E0822F0895FC01848DDF01A80FB11DCD
:10027000A35ABF4F2C91848D90E001968F739927DC
:10028000848FA689B7892C93A089B1898C918370BA
:1002900080648C93938D848D981306C00288F389B3
:1002A000E02D80818F7D80830895EF92FF920F93E0
:1002B0001F93CF93DF93EC0181E0888F9B8D8C8D12
:1002C000981305C0E889F989808185FD26C0F62E3E
:1002D0000B8D10E00F5F1F4F0F731127E02E8C8DD9
:1002E000E8120CC00FB607FCFACFE889F9898081C3
:1002F00085FFF5CFCE010E943301F1CF8B8DFE013A
:10030000E80FF11DE35AFF4FF0829FB7F8940B8F6F
:10031000EA89FB89808180620AC09FB7F894EE89E0
:10032000FF896083E889F989808183708064808394
:100330009FBF81E090E0DF91CF911F910F91FF90DF
:10034000EF900895682F81E291E00C945501CF93CE
:10035000DF93EC01888D8823C9F0EA89FB898081CD
:1003600085FD05C0A889B9898C9186FD0FC00FB69F
:1003700007FCF5CF808185FFF2CFA889B9898C91E0
:1003800085FFEDCFCE010E943301E7CFDF91CF9102
:10039000089580E090E0892B29F00E9429018111C5
:1003A0000C9400000895FF920F931F93CF93DF9357
:1003B0000DE111E0C6E0D0E0F801F1908F01CE012F
:1003C0000E94880BF81621F06F2DCE010E94900B31
:1003D0002196CA30D10581F78DE191E0DF91CF916F
:1003E0001F910F91FF9008950E94CD0B1F920F92C5
:1003F0000FB60F9211242F933F938F939F93AF9338
:10040000BF938091150190911601A0911701B091B1
:1004100018013091140123E0230F2D3720F40196A9
:10042000A11DB11D05C026E8230F0296A11DB11D17
:10043000209314018093150190931601A093170146
:10044000B09318018091190190911A01A0911B019C
:10045000B0911C010196A11DB11D809319019093CB
:100460001A01A0931B01B0931C01BF91AF919F9102
:100470008F913F912F910F900FBE0F901F90189565
:100480001F920F920FB60F9211242F933F934F9309
:100490005F936F937F938F939F93AF93BF93EF93EC
:1004A000FF9381E291E00E943301FF91EF91BF91B0
:1004B000AF919F918F917F916F915F914F913F91FC
:1004C0002F910F900FBE0F901F9018951F920F92B3
:1004D0000FB60F9211242F938F939F93EF93FF9357
:1004E000E0913101F09132018081E0913701F0918A
:1004F000380182FD12C0908180913A018F5F8F7325
:1005000020913B01821751F0E0913A01F0E0EF5D5C
:10051000FE4F958F80933A0101C08081FF91EF914A
:100520009F918F912F910F900FBE0F901F90189554
:10053000789484B5826084BD84B5816084BD85B5BE
:10054000826085BD85B5816085BD80916E008160CA
:1005500080936E0010928100809181008260809370
:100560008100809181008160809381008091800072
:100570008160809380008091B10084608093B1009D
:100580008091B00081608093B00080917A00846097
:1005900080937A0080917A00826080937A008091C3
:1005A0007A00816080937A0080917A0080688093DD
:1005B0007A001092C10014B815B888E387B918B84A
:1005C0008CEF8AB980E88BB9E0913101F09132016A
:1005D00082E08083E0912D01F0912E011082E09164
:1005E0002F01F09130018FEC808310923901E0915E
:1005F0003501F091360186E08083E0913301F0917E
:100600003401808180618083E0913301F091340175
:10061000808188608083E0913301F0913401808192
:1006200080688083E0913301F091340180818F7D77
:100630008083F894C0EC8BB1082E000C990B0E94BB
:10064000A20160E177E280E090E00E9484001A99C4
:1006500002C0CBB9F0CF0DE111E0C6E0D0E0CE0191
:100660000E94880BF80181938F012196CA30D10531
:10067000B1F720E030E0A90160911D0170911E01E9
:1006800080911F01909120010E949E0B811194C3C3
:1006900080E090E0A0E8BFE380931D0190931E01ED
:1006A000A0931F01B09320010E94D30188E58BB96C
:1006B0008BB1082E000C990B0E94A20181E090E002
:1006C000909313018093120128E833E140E558E547
:1006D00080E090E060911201709113016817790732
:1006E00014F05BB901C04BB901968431910591F7C3
:1006F0002150310969F782E090E0909313018093D3
:10070000120128EE33E040E558E580E090E060918A
:100710001201709113016817790714F05BB901C0D9
:100720004BB901968431910591F72150310969F750
:1007300083E090E0909313018093120128EE33E060
:1007400040E558E580E090E060911201709113015E
:100750006817790714F05BB901C04BB90196843171
:10076000910591F72150310969F784E090E0909369
:1007700013018093120128EE33E040E558E580E054
:1007800090E060911201709113016817790714F0DD
:100790005BB901C04BB901968431910591F72150A5
:1007A000310969F785E090E090931301809312017D
:1007B00028EE33E040E558E580E090E060911201DA
:1007C000709113016817790714F05BB901C04BB938
:1007D00001968431910591F72150310969F786E03E
:1007E00090E0909313018093120128EE33E040E5EE
:1007F00058E580E090E06091120170911301681754
:10080000790714F05BB901C04BB9019684319105A9
:1008100091F72150310969F787E090E09093130137
:100820008093120128EE33E040E558E580E090E047
:1008300060911201709113016817790714F05BB988
:1008400001C04BB901968431910591F721503109CE
:1008500069F788E090E0909313018093120128EEED
:1008600033E040E558E580E090E06091120170913E
:1008700013016817790714F05BB901C04BB90196F1
:100880008431910591F72150310969F789E090E0B1
:10089000909313018093120128EE33E040E558E570
:1008A00080E090E060911201709113016817790760
:1008B00014F05BB901C04BB901968431910591F7F1
:1008C0002150310969F78AE090E0909313018093F9
:1008D000120128EE33E040E558E580E090E06091B9
:1008E0001201709113016817790714F05BB901C008
:1008F0004BB901968431910591F72150310969F77F
:100900008BE090E0909313018093120128EE33E086
:1009100040E558E580E090E060911201709113018C
:100920006817790714F05BB901C04BB9019684319F
:10093000910591F72150310969F78CE090E090938F
:1009400013018093120128EE33E040E558E580E082
:1009500090E060911201709113016817790714F00B
:100960005BB901C04BB901968431910591F72150D3
:10097000310969F78DE090E09093130180931201A3
:1009800028EE33E040E558E580E090E06091120108
:10099000709113016817790714F05BB901C04BB966
:1009A00001968431910591F72150310969F78EE064
:1009B00090E0909313018093120128EE33E040E51C
:1009C00058E580E090E06091120170911301681782
:1009D000790714F05BB901C04BB9019684319105D8
:1009E00091F72150310969F78FE090E0909313015E
:1009F0008093120128EE33E040E558E580E090E076
:100A000060911201709113016817790714F05BB9B6
:100A100001C04BB901968431910591F721503109FC
:100A200069F780E190E0909313018093120128EE22
:100A300033E040E558E580E090E06091120170916C
:100A400013016817790714F05BB901C04BB901961F
:100A50008431910591F72150310969F781E190E0E6
:100A6000909313018093120128EE33E040E558E59E
:100A700080E090E06091120170911301681779078E
:100A800014F05BB901C04BB901968431910591F71F
:100A90002150310969F782E190E09093130180932E
:100AA000120128EE33E040E558E580E090E06091E7
:100AB0001201709113016817790714F05BB901C036
:100AC0004BB901968431910591F72150310969F7AD
:100AD00083E190E0909313018093120128EE33E0BC
:100AE00040E558E580E090E06091120170911301BB
:100AF0006817790714F05BB901C04BB901968431CE
:100B0000910591F72150310969F790931301809372
:100B1000120128EE33E040E558E580E090E0609176
:100B20001201709113016817790714F05BB901C0C5
:100B30004BB901968431910591F72150310969F73C
:100B400085E190E0909313018093120128EE33E049
:100B500040E558E580E090E060911201709113014A
:100B60006817790714F05BB901C04BB9019684315D
:100B7000910591F72150310969F786E190E0909352
:100B800013018093120128EE33E040E558E580E040
:100B900090E060911201709113016817790714F0C9
:100BA0005BB901C04BB901968431910591F7215091
:100BB000310969F787E190E0909313018093120166
:100BC00028EE33E040E558E580E090E060911201C6
:100BD000709113016817790714F05BB901C04BB924
:100BE00001968431910591F72150310969F788E127
:100BF00090E0909313018093120128EE33E040E5DA
:100C000058E580E090E0609112017091130168173F
:100C1000790714F05BB901C04BB901968431910595
:100C200091F72150310969F7C2ECD1E009E110E0F8
:100C300078E5F72EE8E5EE2EF0E5DF2E10931301B0
:100C400000931201EBB88BB1082E000C990B0E9497
:100C5000A20128EE33E080E090E040911201509133
:100C600013014817590714F0FBB801C0DBB801960F
:100C70008431910591F72150310969F783B1982F9B
:100C8000917086B18170989FC0011124892B09F061
:100C900055C085E090E0909313018093120120E10C
:100CA00037E240E558E580E090E0609112017091F4
:100CB00013016817790714F05BB901C04BB90196AD
:100CC0008431910591F72150310969F781E090E075
:100CD000909313018093120120E137E240E558E53B
:100CE00080E090E06091120170911301681779071C
:100CF00014F05BB901C04BB901968431910591F7AD
:100D00002150310969F720E030E040E85FE360916D
:100D10001D0170911E0180911F01909120010E9480
:100D20009E0B811103C084E08BB901C01BB88BB14D
:100D3000082E000C990B0E94A20103C0219709F014
:100D40007DCF85E090E0909313018093120120E124
:100D500037E240E558E580E090E060911201709143
:100D600013016817790714F05BB901C04BB90196FC
:100D70008431910591F72150310969F781E090E0C4
:100D8000909313018093120120E137E240E558E58A
:100D900080E090E06091120170911301681779076B
:100DA00014F05BB901C04BB901968431910591F7FC
:100DB0002150310969F78FC310921D0110921E0155
:100DC00010921F01109220010E94D3018CE58BB973
:100DD0008BB1082E000C990B0E94A20181E090E0DB
:100DE000909313018093120128EE33E044E55CE513
:100DF00080E090E06091120170911301681779070B
:100E000014F05BB901C04BB901968431910591F79B
:100E10002150310969F782E090E0909313018093AB
:100E2000120128EE33E044E55CE580E090E060915B
:100E30001201709113016817790714F05BB901C0B2
:100E40004BB901968431910591F72150310969F729
:100E500083E090E0909313018093120128EE33E039
:100E600044E55CE580E090E060911201709113012F
:100E70006817790714F05BB901C04BB9019684314A
:100E8000910591F72150310969F784E090E0909342
:100E900013018093120128EE33E044E55CE580E025
:100EA00090E060911201709113016817790714F0B6
:100EB0005BB901C04BB901968431910591F721507E
:100EC000310969F785E090E0909313018093120156
:100ED00028EE33E044E55CE580E090E060911201AB
:100EE000709113016817790714F05BB901C04BB911
:100EF00001968431910591F72150310969F786E017
:100F000090E0909313018093120128EE33E044E5C2
:100F10005CE580E090E06091120170911301681728
:100F2000790714F05BB901C04BB901968431910582
:100F300091F72150310969F787E090E09093130110
:100F40008093120128EE33E044E55CE580E090E018
:100F500060911201709113016817790714F05BB961
:100F600001C04BB901968431910591F721503109A7
:100F700069F788E090E0909313018093120128EEC6
:100F800033E044E55CE580E090E06091120170910F
:100F900013016817790714F05BB901C04BB90196CA
:100FA0008431910591F72150310969F789E090E08A
:100FB000909313018093120128EE33E044E55CE541
:100FC00080E090E060911201709113016817790739
:100FD00014F05BB901C04BB901968431910591F7CA
:100FE0002150310969F78AE090E0909313018093D2
:100FF000120128EE33E044E55CE580E090E060918A
:101000001201709113016817790714F05BB901C0E0
:101010004BB901968431910591F72150310969F757
:101020008BE090E0909313018093120128EE33E05F
:1010300044E55CE580E090E060911201709113015D
:101040006817790714F05BB901C04BB90196843178
:10105000910591F72150310969F78CE090E0909368
:1010600013018093120128EE33E044E55CE580E053
:1010700090E060911201709113016817790714F0E4
:101080005BB901C04BB901968431910591F72150AC
:10109000310969F78DE090E090931301809312017C
:1010A00028EE33E044E55CE580E090E060911201D9
:1010B000709113016817790714F05BB901C04BB93F
:1010C00001968431910591F72150310969F78EE03D
:1010D00090E0909313018093120128EE33E044E5F1
:1010E0005CE580E090E06091120170911301681757
:1010F000790714F05BB901C04BB9019684319105B1
:1011000091F72150310969F78FE090E09093130136
:101110008093120128EE33E044E55CE580E090E046
:1011200060911201709113016817790714F05BB98F
:1011300001C04BB901968431910591F721503109D5
:1011400069F780E190E0909313018093120128EEFB
:1011500033E044E55CE580E090E06091120170913D
:1011600013016817790714F05BB901C04BB90196F8
:101170008431910591F72150310969F781E190E0BF
:10118000909313018093120128EE33E044E55CE56F
:1011900080E090E060911201709113016817790767
:1011A00014F05BB901C04BB901968431910591F7F8
:1011B0002150310969F782E190E090931301809307
:1011C000120128EE33E044E55CE580E090E06091B8
:1011D0001201709113016817790714F05BB901C00F
:1011E0004BB901968431910591F72150310969F786
:1011F00083E190E0909313018093120128EE33E095
:1012000044E55CE580E090E060911201709113018B
:101210006817790714F05BB901C04BB901968431A6
:10122000910591F72150310969F79093130180934B
:10123000120128EE33E044E55CE580E090E0609147
:101240001201709113016817790714F05BB901C09E
:101250004BB901968431910591F72150310969F715
:1012600085E190E0909313018093120128EE33E022
:1012700044E55CE580E090E060911201709113011B
:101280006817790714F05BB901C04BB90196843136
:10129000910591F72150310969F786E190E090932B
:1012A00013018093120128EE33E044E55CE580E011
:1012B00090E060911201709113016817790714F0A2
:1012C0005BB901C04BB901968431910591F721506A
:1012D000310969F787E190E090931301809312013F
:1012E00028EE33E044E55CE580E090E06091120197
:1012F000709113016817790714F05BB901C04BB9FD
:1013000001968431910591F72150310969F788E1FF
:1013100090E0909313018093120128EE33E044E5AE
:101320005CE580E090E06091120170911301681714
:10133000790714F05BB901C04BB90196843191056E
:1013400091F72150310969F7C2ECD1E009E110E0D1
:101350004CE5F42E5CE5E52E64E5D62E10931301E2
:1013600000931201EBB88BB1082E000C990B0E9470
:10137000A20128EE33E080E090E04091120150910C
:1013800013014817590714F0FBB801C0DBB80196E8
:101390008431910591F72150310969F783B1982F74
:1013A000917086B18170989FC0011124892B09F03A
:1013B00055C085E090E0909313018093120120E1E5
:1013C00037E244E55CE580E090E0609112017091C5
:1013D00013016817790714F05BB901C04BB9019686
:1013E0008431910591F72150310969F781E090E04E
:1013F000909313018093120120E137E244E55CE50C
:1014000080E090E0609112017091130168177907F4
:1014100014F05BB901C04BB901968431910591F785
:101420002150310969F720E030E040E85FE3609146
:101430001D0170911E0180911F01909120010E9459
:101440009E0B811103C084E08BB901C01BB88BB126
:10145000082E000C990B0E94A20103C0219709F0ED
:101460007DCF85E090E0909313018093120120E1FD
:1014700037E244E55CE580E090E060911201709114
:1014800013016817790714F05BB901C04BB90196D5
:101490008431910591F72150310969F781E090E09D
:1014A000909313018093120120E137E244E55CE55B
:1014B00080E090E060911201709113016817790744
:1014C00014F05BB901C04BB901968431910591F7D5
:1014D0002150310969F720E030E040E85FE3609196
:1014E0001D0170911E0180911F01909120010E94A9
:1014F0009E0B811103C084E08BB901C01BB88BB176
:10150000082E000C990B0E94A201C4E0D0E594E5DE
:10151000D92E20E4C22E34E4B32E19993DC020E028
:1015200030E040E85FE360911D0170911E01809101
:101530001F01909120010E949E0B811102C0DBB817
:1015400001C0DBB98BB1082E000C990B0E94A201DF
:1015500002E310E060E177E280E090E00E94840026
:1015600001501109B9F720E030E040E85FE36091F5
:101570001D0170911E0180911F01909120010E9418
:101580009E0B811102C0CBB901C01BB88BB1082ED4
:10159000000C990B0E94A2011E9967C020E030E068
:1015A00040E85FE360911D0170911E0180911F0171
:1015B000909120010E949E0B811102C0BBB801C016
:1015C000CBB88BB1082E000C990B0E94A20102E34C
:1015D00010E060E177E280E090E00E948400199BD7
:1015E00004C001501109A9F727C020E030E040E80D
:1015F0005FE360911D0170911E0180911F01909128
:1016000020010E949E0B811102C0DBB801C0DBB932
:101610008BB1082E000C990B0E94A20182E3E82EE8
:10162000F12C60E177E280E090E00E948400F1E03C
:10163000EF1AF108B1F7D5CF20E030E040E85FE3E2
:1016400060911D0170911E0180911F0190912001F8
:101650000E949E0B811102C0CBB901C01BB88BB197
:10166000082E000C990B0E94A20168EB7BE080E041
:1016700090E00E94840020E030E040E85FE3609169
:101680001D0170911E0180911F01909120010E9407
:101690009E0B811102C0CBB901C01BB88BB1082EC3
:1016A000000C990B0E94A20168EB7BE080E090E0C7
:1016B0000E94840032CFE1E2F1E01382128288EED0
:1016C00093E0A0E0B0E084839583A683B78384E0B1
:1016D00091E09183808385EC90E09587848784EC0A
:1016E00090E09787868780EC90E0918B808B81ECEF
:1016F00090E0938B828B82EC90E0958B848B86ECD0
:1017000090E0978B868B118E128E138E148E089517
:10171000F999FECF92BD81BDF89A992780B50895B9
:10172000262FF999FECF1FBA92BD81BD20BD0FB6FD
:10173000F894FA9AF99A0FBE019608950E94A30BA5
:1017400008F481E00895990F0008550FAA0BE0E80E
:10175000FEEF16161706E807F907C0F01216130673
:10176000E407F50798F0621B730B840B950B39F4B3
:101770000A2661F0232B242B252B21F408950A2619
:1017800009F4A140A6958FEF811D811D0895EE0FEC
:10179000FF1F0590F491E02D099481E090E0F8940A
:0817A0000C94D20BF894FFCF6A
:1017A800000000005501BE00EC00A7011D01FB0070
:0217B8000F011F
:00000001FF
